{"abi":[{"type":"function","name":"store","inputs":[{"name":"certificateId","type":"bytes32","internalType":"bytes32"},{"name":"attestationHash","type":"bytes32","internalType":"bytes32"}],"outputs":[],"stateMutability":"nonpayable"},{"type":"function","name":"verify","inputs":[{"name":"certificateId","type":"bytes32","internalType":"bytes32"}],"outputs":[{"name":"","type":"bytes32","internalType":"bytes32"}],"stateMutability":"view"},{"type":"event","name":"CertificateStored","inputs":[{"name":"certificateId","type":"bytes32","indexed":true,"internalType":"bytes32"},{"name":"attestationHash","type":"bytes32","indexed":false,"internalType":"bytes32"},{"name":"timestamp","type":"uint256","indexed":false,"internalType":"uint256"}],"anonymous":false}],"bytecode":{"object":"0x608060405234801561000f575f80fd5b5061022d8061001d5f395ff3fe608060405234801561000f575f80fd5b5060043610610034575f3560e01c80634000e4f61461003857806375e3661614610054575b5f80fd5b610052600480360381019061004d9190610127565b610084565b005b61006e60048036038101906100699190610165565b6100d7565b60405161007b919061019f565b60405180910390f35b805f808481526020019081526020015f2081905550817fbc242c34bb4427dfde027956987f5b0faccf0fac280052a35b95d58ee3187ef082426040516100cb9291906101d0565b60405180910390a25050565b5f805f8381526020019081526020015f20549050919050565b5f80fd5b5f819050919050565b610106816100f4565b8114610110575f80fd5b50565b5f81359050610121816100fd565b92915050565b5f806040838503121561013d5761013c6100f0565b5b5f61014a85828601610113565b925050602061015b85828601610113565b9150509250929050565b5f6020828403121561017a576101796100f0565b5b5f61018784828501610113565b91505092915050565b610199816100f4565b82525050565b5f6020820190506101b25f830184610190565b92915050565b5f819050919050565b6101ca816101b8565b82525050565b5f6040820190506101e35f830185610190565b6101f060208301846101c1565b939250505056fea26469706673582212209aa0516abdb328cf2ea9cc1630585d59f015f0947cffa8ab76dd5d3e88a5aff964736f6c63430008140033","linkReferences":{}},"methodIdentifiers":{"store(bytes32,bytes32)":"4000e4f6","verify(bytes32)":"75e36616"},"id":0}